:020000040800F2
:100000000000022089920008E5040008E9040008C5
:10001000ED040008F1040008F504000800000000E9
:10002000000000000000000000000000F9040008CB
:10003000FD04000800000000010500080505000897
:10004000D9920008D9920008D99200080905000841
:10005000D9920008D9920008D9920008D9920008D4
:10006000D9920008D9920008D9920008D9920008C4
:10007000D9920008D9920008D9920008D9920008B4
:10008000D9920008D9920008D9920008D9920008A4
:10009000D9920008D9920008D9920008D992000894
:1000A000D9920008D9920008D9920008D992000884
:1000B000D9920008D9920008D9920008D992000874
:1000C000D9920008D9920008D9920008D992000864
:1000D000D9920008D9920008D9920008D992000854
:1000E000D9920008D9920008D9920008D992000844
:1000F000D9920008D9920008D9920008D992000834
:10010000D9920008D9920008D9920008D992000823
:10011000D9920008D9920008D9920008D992000813
:10012000D9920008D9920008D9920008D992000803
:10013000D9920008D9920008D9920008D9920008F3
:10014000D9920008D9920008D9920008D9920008E3
:10015000D9920008D9920008D9920008D9920008D3
:10016000D9920008D9920008D9920008D9920008C3
:10017000D9920008D9920008D9920008D9920008B3
:08018000D9920008D992000891
:1001880008B59FED150A2DED068BDFED14AADFEDFE
:10019800149A9FED149AB0EE408AB0EE40AAF7EE9A
:1001A800008A30EE280A002020EE2A0ABCEEC00A97
:1001B80010EE101A89B202F037F938EE298AB4EE37
:1001C800C98AF1EE10FA58BFB0EE4A8AB0EE480A72
:1001D80002F098FAE5E700BF0000000000E0FF44E5
:1001E800FDAD803DDB0FC94008B540F69015C2F261
:1001F80000054FF47A764FF44060C4F202004FF4E1
:10020800805101F055FE4FF44060C4F202004FF4F3
:10021800804101F059FE2E602B6840F69014C2F21E
:100228000004002BF8D14FF44060C4F202004FF4F0
:10023800805101F03FFE4FF44060C4F202004FF4D9
:10024800804101F041FE26602B68002BFCD1D2E7EB
:1002580008B540F69013C2F200031A6812B11A6882
:10026800013A1A604FF44060C4F202004FF40051A2
:1002780001F02AFE40F68C13C2F200031A684AB154
:1002880000221A6040F69413C2F200031A68013281
:100298001A6008BD01221A60F4E700BF82B040F678
:1002A80090120190019BC2F2000213601368002BA8
:1002B800FCD102B0704700BF704700BF00B50121F4
:1002C80085B04FF0805000F0A9FC012002F048F9F9
:1002D800012000F06DFC002000F06AFC012000F015
:1002E8006DFB612000F050FD0028FAD04FF400703B
:1002F80000F03CFC012000F055FC00F06DFE04A865
:100308000023202240F80C3D0393029200F032FEB5
:1003180005B05DF804FB00BF30B5012185B04FF48E
:10032800804001F02DFC042001F0A6F9002001F026
:10033800B5F94FF4800000F0DFFD08234FF4800288
:1003480001240DEB0300002502928DF80D308DF885
:100358000C508DF80E4000F05FFD032301A88DF8C6
:1003680004308DF806508DF805408DF8074000F0F0
:1003780055FA204601F0AAF905B030BD40F2100345
:10038800C2F200032DE9F04F196844F6D352C1F2C6
:100398006202A2FB01314FF46D4540F68C124EF219
:1003A8001003C2F20002CEF20003CEF20005890962
:1003B80000244FF007090139F0264FF4406A8DB048
:1003C8001460C4F2020A5960082085F823600121EC
:1003D8009C60C3F8009000F0F7FB01254FF47043D0
:1003E8000327504602A902938DF80E408DF80F405E
:1003F8008DF80C508DF80D70264601F0C9FC294681
:100408004FF4003000F00AFCC4F2020628462946E0
:1004180000F0DAFB4FF002080C23304602A90293E1
:1004280001938DF80D708DF80E408DF80F508DF8F2
:100438000C8001F0ADFC304641464A4601F048FDCB
:100448004FF4884B304639464A4601F041FDC4F224
:10045800000B019BADF814404FF4E132584604A953
:100468000492ADF81A30ADF81640ADF81840ADF862
:100478001C4001F0ABFD5846294601F02FFE2946E5
:100488004FF0005000F0CAFB2846294600F09CFBBC
:10049800204608A9CDF82C800894099401F05CFF47
:1004A8003023304602A902938DF80C708DF80F4066
:1004B80001F06EFC2046294601F06EFF20462146D9
:1004C80001F0B2FFFFF7FAFEFFF726FF50464FF4A0
:1004D800005101F0EDFC0DB0BDE8F08F704700BF92
:1004E800FEE700BFFEE700BFFEE700BFFEE700BF74
:1004F800704700BF704700BF704700BF704700BF1C
:1005080008B5FFF7A5FE4FF44060C4F202004FF4AF
:10051800804101F0D9FC4FF4804001F079FB00B92B
:1005280008BD4FF4804001F08FFB4FF48000BDE818
:10053800084000F0E1BC00BF4FF46D42CEF200026B
:100548004FF46053D2F88810C4F2020341F47001EA
:10055800C2F888101968002241F0010119609A60F8
:10056800186843F2100120F08470C2F2004120F4B0
:10057800803018605960196882B021F480211960B0
:10058800DA60009201921A6842F480321A601A46C0
:1005980003E0009BB3F5A06F09D0136803F40033A0
:1005A8000193009B01330093019B002BF1D04FF482
:1005B8006053C4F202031B6813F4003318BF01230D
:1005C8000193019B012B08D04FF46D43CEF2000339
:1005D8004FF000629A6002B070474FF46053C4F263
:1005E80002034FF4E042196CC4F2000241F080515A
:1005F8001964116841F4804111609A689A609A6898
:1006080042F400429A60996845F2084241F4A051C8
:10061800C0F2407299605A601A6842F080721A609B
:1006280019460A684FF460539201C4F20203F8D5E0
:100638004FF47052C4F2020240F2056111609A68E8
:1006480022F003029A609A6842F002029A609A685D
:1006580002F00C02082AFAD1B6E700BF4FF4605343
:10066800C4F202039A6802F00C02042A36D0082A5F
:1006780012D04FF41051C0F2F4014FF46052C4F29A
:10068800020240F200039268C2F20003C2F30312AE
:100698009A5CD1401961704758685A6810F4800F05
:1006A800586815BF4FF490534FF41053C0F27A03B3
:1006B800C0F2F40302F03F02B3FBF2F14FF46053CF
:1006C800C4F20203C0F388105B68C3F3014301332B
:1006D80001FB00F15B00B1FBF3F1CEE74FF4905161
:1006E800C0F27A01C9E700BF0020704700207047B8
:1006F80001207047002070474FF0FF30704700BF5F
:100708000020704740F6E403C2F20003186838B1CD
:1007180001446A46914294BF19604FF0FF30704718
:1007280040F69C10C2F200001860F1E770B5161E82
:1007380014DD0C468D194FF48840C4F2000014F8FB
:10074800011B01F0FFFC4FF48840C4F20000402177
:1007580001F0BCFD0028F6D0AC42ECD1304670BDAB
:1007680010B52DED028BB5EEC00AF1EE10FA86B089
:10077800B0EE408A44BFB1EE408A2D224FF000030C
:10078800B0EE480A0446ADF8143044BF8DF8153071
:100798008DF8142001F066FF07EE904AF0EE408ACB
:1007A800F8EEE70AB2EE040A01F0ECFF78EE688A88
:1007B800F6EE007AE8EE807ABCEEC88AFCEEE77ABC
:1007C80040F6E80049F6500100940194CDED027A14
:1007D800C0F6000105AA18EE103AC2F2000003F0B4
:1007E800F7FF40F6E800C2F2000006B0BDEC028B4D
:1007F80010BD00BFCC98000800000020E4080020CD
:10080800E40800209C0900204FF46D4340F0BF60CD
:10081800CEF2000340F40030D8607047C37870B45B
:100828007BB902784FF461435109203102F01F026D
:100838000120CEF2000300FA02F243F8212070BC36
:1008480070474FF46D43CEF200034678DA68847837
:100858000378D243C2F30222C2F104010F25C9B2C0
:1008680006FA01F145FA02F2C9B222400A4303F13D
:10087800604303F561431201D2B283F80023027882
:100888004FF4614302F01F0101205209CEF2000328
:1008980000FA01F143F8221070BC704721F0604162
:1008A8004FF46D4321F07F01CEF2000308439860B6
:1008B800704700BF4FF46D43CEF200031A6919B9AF
:1008C80022EA00001861704710431861704700BFA2
:1008D8004EF21003CEF2000304281A680CBF42F04F
:1008E800040222F004021A60704700BF4FF46053FC
:1008F800C4F202030022196841F0010119609A60EC
:10090800186843F2100120F08470C2F2004120F40C
:10091800803018605960196821F480211960DA6004
:10092800704700BF43F60203C4F2020300221A70A4
:100938001870704782B000234FF460520193C4F2DC
:10094800020213689B030FD4019B01330193019B9F
:10095800B3F5A06FF5D14FF46053C4F202031868E1
:10096800C0F3404002B07047019B01330193019BE3
:10097800F1E700BF4FF46053C4F202031A6822F093
:10098800F80242EAC0001860704700BF0023C4F2B2
:1009980047231860704700BF43F67003C4F2020390
:1009A800002201281A701A7005D0042802D10522E5
:1009B8001A70704770471870704700BF4FF468632B
:1009C800C4F247231860704710B4019C40EA0460E1
:1009D8005B0801434FF46054C4F20204013B41EA4E
:1009E800821242EA034363605DF8044B704700BF1C
:1009F8006023C4F247231860704700BF4FF4605368
:100A08000907C4F2020341EA8010C3F88400704762
:100A18006823C4F247231860704700BF4C23C4F210
:100A280047231860704700BF4FF46053C4F20203B5
:100A38009A6822F0EC62114308439860704700BF3F
:100A48004FF46053C4F202039A6822F078421143CB
:100A580008439860704700BF4FF46053C4F2020324
:100A68009A6822F003021043986070474FF460536D
:100A7800C4F20203986800F00C0070474FF460530A
:100A8800C4F202039A6822F0F0021043986070479B
:100A98004FF46053C4F202039A6822F4E052104300
:100AA800986070474FF46053C4F202039A6822F4C6
:100AB800604242EAC0009860704700BF4FF460533C
:100AC800C4F2020310B49A6802F00C02042A24D07B
:100AD800082A28D04FF41051C0F2F40101604FF4F5
:100AE8006052C4F2020240F214039468C2F2000396
:100AF800C4F303141C5DE14041609468C4F382248C
:100B08001C5D21FA04F4846092685DF8044BC2F31A
:100B180042329B5CD940C16070474FF49051C0F29B
:100B28007A010160DBE75C685A6814F4800F5C683E
:100B380015BF4FF490534FF41053C0F27A03C0F22C
:100B4800F40302F03F02B3FBF2F14FF46053C4F236
:100B58000203C4F388145B68C3F30143013301FB48
:100B680004F15B00B1FBF3F10160B8E700F44073F6
:100B7800B3F5407F0CD14FF46053C4F2020320F068
:100B880070419A6821F4407122F4F8120A439A607D
:100B98004FF46053C4F20203C0F30B001A6F104302
:100BA8001867704740F63C63C4F2472318607047E3
:100BB8004FF46463C4F24723186070474FF4AE7370
:100BC800C4F24723186070474FF46053C4F202031D
:100BD8001A6B19B922EA00001863704710431863AA
:100BE800704700BF4FF46053C4F202035A6B19B93F
:100BF80022EA00005863704710435863704700BFEB
:100C08004FF46053C4F202039A6B19B922EA000048
:100C18009863704710439863704700BF4FF4605360
:100C2800C4F202031A6C19B922EA0000186470476A
:100C380010431864704700BF4FF46053C4F20203B6
:100C48005A6C19B922EA0000586470471043586476
:100C5800704700BF4FF46053C4F202031A6919B910
:100C680022EA00001861704710431861704700BFFE
:100C78004FF46053C4F202035A6919B922EA00001A
:100C88005861704710435861704700BF4FF4605374
:100C9800C4F202039A6919B922EA00009861704700
:100CA80010439861704700BF4FF46053C4F20203C9
:100CB8001A6A19B922EA00001862704710431862CC
:100CC800704700BF4FF46053C4F202035A6A19B95F
:100CD80022EA00005862704710435862704700BF0C
:100CE8004FF46053C4F202031A6D19B922EA0000E6
:100CF8001865704710431865704700BF4FF460537C
:100D0800C4F202035A6D19B922EA00005865704707
:100D180010435865704700BF4FF46053C4F2020394
:100D28009A6D19B922EA00009865704710439865D2
:100D3800704700BF4FF46053C4F202031A6E19B92A
:100D480022EA00001866704710431866704700BF13
:100D58004FF46053C4F202035A6E19B922EA000034
:100D68005866704710435866704700BF43F60D0336
:100D7800C4F202031A7819B922EA00001870704701
:100D880010431870704700BF4309012B0ED0022B87
:100D98004FF46053C4F2020300F01F000CBF1B6F36
:100DA8005B6F23FA00F000F0010070474FF46053C6
:100DB800C4F2020300F01F001B6823FA00F000F0E1
:100DC800010070474FF46053C4F202035A6F42F0B7
:100DD80080725A67704700BF4FF46053C4F2020331
:100DE800DB6818420CBF00200120704743F60E0351
:100DF800C4F20203187070474FF47053C4F2010331
:100E08004FF6FF710022C0F27F011A605A609A60A3
:100E1800DA605961704700BF837970B443B34FF407
:100E28007053C4F2010301681E6802794579CC4306
:100E380026401E605E6802F1804202F59E32344010
:100E48005C6014682143116002689868D1430840C7
:100E58009860D868102D01EA0001D96014D005F116
:100E6800804505F59E352B681A432A6070BC70478B
:100E78000379016803F1804303F59E3370BC1A6857
:100E880022EA01021A607047996811439960D9688B
:100E98000A43DA6070BC704700230C224271036079
:100EA80003718371704700BF4FF47053C4F201039C
:100EB8001A691043186170474FF47053C4F2010364
:100EC8005B6918420CBF0020012070474FF4705333
:100ED800C4F20103586170474FF47053C4F2010320
:100EE8001A685B69034004D010420CBF002001203F
:100EF80070471846704700BF4FF47053C4F201039F
:100F08005861704700217F22FF2380E80E00704758
:100F18004FF42053C4F2000320B9CA215322596266
:100F28005A627047FF225A62704700BF82B04FF47E
:100F380020510023C4F200010193CB685B0648BF2F
:100F4800012015D44FF0FF33CB6000E04AB9CA68DE
:100F5800019B01330193019BB3F5803F02F04002EE
:100F6800F4D14FF42053C4F20003D868C0F38010C2
:100F780002B0704738B54FF42054C4F20004CA22B6
:100F88005323626263620546FFF7D0FF98B1A368F6
:100F980023F04003A360A2682B681343A360AB68E7
:100FA800236123696A6843EA02432361E36823F003
:100FB8008003E36001204FF42053C4F20003FF22B2
:100FC8005A6238BD4FF42053C4F20003DA6822F0A5
:100FD8008002DA60704700BF4FF42051C4F200016C
:100FE80082B053230020CA2201904A624B62CB6828
:100FF80023F0A003CB6000E04AB9CA68019B013323
:101008000193019BB3F5003F02F02002F4D14FF4A5
:101018002053C4F20003FF22D8685A62C0F340107C
:1010280002B0704730B54FF4205483B0C4F20004C6
:101038000025CA225323019562626362FFF776FF97
:10104800D8B142F2011325606360A36803F0070377
:10105800A360214600E04AB9CA68019B01330193A5
:10106800019BB3F5803F02F00402F4D14FF4205302
:10107800C4F20003DA68520708D400204FF4205362
:10108800C4F20003FF225A6203B030BDFF210022E0
:10109800C0F27F014FF6FF709C689A605861196131
:1010A8009A61DA611A62DA62DA635A649A64DA6017
:1010B8001A64FFF791FF003018BF0120DEE700BF78
:1010C80038B54FF42054C4F20004CA225323626294
:1010D80063620546FFF72AFF68B1A36895B923F054
:1010E8001003A3604FF42053C4F200030120DA6810
:1010F80022F08002DA604FF42053C4F20003FF228A
:101108005A6238BD43F01003A360EBE74FF4205355
:10111800C4F200035322CA2159625A629A6848B934
:1011280002F0DF029A604FF42053C4F20003FF225A
:101138005A62704742F020029A60F4E738B54FF4DB
:101148002053C4F20003002837D19C6814F04004EF
:1011580008BFCC705FD10B78092B4FF0000207D97C
:101168000A3BDBB20132092BD2B2F9D81201D2B252
:101178004878134309284FEA03435ED900220A3806
:10118800C0B201320928D2B2F9D81201D5B28A7890
:101198002843092A4FEA00204FF0000107D90A3AEC
:1011A800D2B20131092AC9B2F9D80901C9B21C431E
:1011B80044EA00050A4315430DE09B6813F0400319
:1011C80008BFCB7030D14D7808788A782D0245EA6F
:1011D800004515431D434FF42054C4F20004CA21AE
:1011E800532361626362FFF7A1FE68B105F07F35A2
:1011F80025F0FE452560E36823F08003E360A368DB
:10120800990648BF012012D54FF42053C4F20003B9
:10121800FF225A6238BD0B78CC78092B4FEA044478
:101228004FF000029CD8A3E7CB781B04CBE7FFF76D
:10123800D3FE003018BF0120E6E70025A7E700BF6E
:101248000023C37003704370837070474FF42053BA
:10125800C4F2000370B41B6803F4800603F07F0433
:10126800C3F30542360CC3F30623CE708C700A70A4
:101278004B70B8B925091609180905EB850504F05E
:101288000F0406EB860602F00F0200EB800003F065
:101298000F0304EB450502EB460603EB40038D7094
:1012A8000E704B7070BC70474FF42053C4F20003AB
:1012B800986A5B68704700BF38B5002839D14A780A
:1012C800D40604D522F010020A32D2B24A70CB7882
:1012D800092B4FF0000007D90A3BDBB20130092B7C
:1012E800C0B2F9D80001C0B20343092A4FEA034348
:1012F8004FD900200A3AD2B20130092AC0B2F9D82F
:101308000001C5B288782A4309284FEA02224FF023
:10131800000407D90A38C0B201340928E4B2F9D860
:101328002401E4B20D7843EA4535154320430543CB
:1013380009E04D78CA788B7808782D0245EA02458D
:101348001D4345EA40354FF42054C4F20004CA2234
:10135800532362626362FFF7E9FD68B125F07F45B8
:1013680025F0C0056560E36823F08003E360A368A7
:10137800980648BF012006D54FF42053C4F2000355
:10138800FF225A6238BDFFF727FE003018BF012040
:10139800F2E70025B6E700BF01230022C270037000
:1013A80083704370704700BF4FF42053C4F20003AA
:1013B800F0B45B6803F03F04C3F34236C3F307425B
:1013C800C3F304230E708C70CA704B70B8B91E0931
:1013D80025091009B70005EB850504F00F0403F093
:1013E8000F033E4400EB800002F00F0204EB4505BA
:1013F80003EB460302EB40008D704B70C870F0BCE5
:10140800704700BF4FF42053F0B5C4F20003002822
:101418004BD19E6816F0400608BFD6706FD113787E
:10142800092B76D900200A3BDBB20130092BC0B268
:10143800F9D80001C4B25078234309284FEA03437E
:1014480069D900240A38C0B201340928E4B2F9D8AD
:101458002401E7B294783843092C4FEA00274FF06B
:10146800000507D90A3CE4B20135092CEDB2F9D8D8
:101478002D01EDB2107B092845EA04044DD9002559
:101488000A38C0B201350928EDB2F9D82D015FFA42
:1014980085FE556892682A43164333433B434EEA18
:1014A80000001C4344EA006014E09B6813F040030A
:1014B80008BFD3702AD15768906896781578547801
:1014C800127B3843304340EA054040EA042040EAB2
:1014D800026018434FF42053C4F200035322B1F5BD
:1014E800807F4FF0CA055D625A620CBFD8611862EE
:1014F8004FF42053C4F20003FF225A62F0BD137860
:10150800D678092B4FEA06468CD802E0D3781B041C
:10151800D1E700248FE700279CE74FF0000EB8E7DB
:10152800002301220273C3700370437083708360C9
:10153800436070474FF42053C4F20003B1F5807F35
:101548000CBFDB691B6AF0B503F4800CDEB2C3F391
:101558000545C3F30624C3F3056103F0804E06F086
:101568007F074FEA1C4C03F08033977082F803C062
:10157800157054701173C2F808E0536008BB4FEA45
:10158800151E20090B093F0907EB870706F00F0610
:101598000EEB8E0E05F00F0500EB800004F00F0433
:1015A80003EB830301F00F0106EB470705EB4E0E33
:1015B80004EB400001EB4303977082F800E05070A1
:1015C8001373F0BD30B44FF42053C4F2000382B05B
:1015D80053220025CA2401955C625A629A6811BB9D
:1015E80022EA00029A60000A194600E04AB9CA686D
:1015F800019B01330193019BB3F5803F00EA02028E
:10160800F4D14FF42053C4F20003DB6803420CBF4B
:10161800002001204FF42053C4F20003FF225A6235
:1016280002B030BC7047104398600120F2E700BF59
:101638004FF4205330B4C4F200030A43CA2553249C
:10164800B0F5807F5D625C620CBF5A649A644FF4A7
:101658002053C4F20003FF225A6230BC704700BF17
:101668004FF42053C4F20003B0F5807F0CBF586CD0
:10167800986CC0F30E0070474FF42053C4F2000377
:10168800CA21532259625A629A6822F007029A6064
:101698009968FF22084398605A6270474FF42053B4
:1016A800C4F2000310B45321CA24FF225C625962B9
:1016B8005DF8044B58615A62704700BF4FF42053DD
:1016C800C4F20003586980B2704700BF10B44FF4E9
:1016D8002051C4F2000183B053230024CA2201948C
:1016E8004A624B628B68F8B923F480638B6000E030
:1016F8004AB9CA68019B01330193019BB3F5803F46
:1017080002F00402F4D14FF42053C4F20003D86865
:10171800C0F380004FF42053C4F20003FF225A6242
:1017280003B05DF8044B704743F480638B6001207D
:10173800F0E700BF4FF42053C4F2000310B4532263
:10174800CA245C625A629A685DF8044B22F48022CB
:101758009A609A6811430843FF219860596270475C
:101768004FF42053C4F20003986800F480207047B7
:101778004FF42053C4F2000310B45322CA245C620D
:101788005A629A685DF8044B22F4E0029A609A68FB
:1017980011430843FF2198605962704770B54FF4B0
:1017A8002054C4F20004CA225323626263620546CD
:1017B8000E46FFF7BBFB30B13543A561E36823F064
:1017C8008003E36001204FF42053C4F20003FF229A
:1017D8005A6270BD38B54FF42054C4F20004CA22CE
:1017E8005323626263620546FFF7A0FB68B1A368F2
:1017F80095B923F08003A3604FF42053C4F200038B
:101808000120DA6822F08002DA604FF42053C4F233
:101818000003FF225A6238BD43F08003A360EBE760
:101828004FF42053C4F200035322CA2159625A626A
:101838009A6848B922F400029A604FF42053C4F21F
:101848000003FF225A62704742F400029A60F4E7EC
:101858004FF42053C4F20003CA21532259625A623A
:101868009A6822F400229A609968FF2208439860D7
:101878005A62704730B44FF42055C4F20005CA24A8
:1018880053236C626B62EB68DC030AD5EB68DB03FD
:1018980007D54FF4003301E0013B02D0EC68E403C4
:1018A800FAD44FF42053C4F20003DC68E5035EBFAA
:1018B80011430843D8634FF42053C4F200034FF098
:1018C800FF0254BF012000205A6230BC704700BF9D
:1018D8004FF42053C4F2000310B49B6823F4006350
:1018E80023F0080371B918434FF42053C4F20003DE
:1018F800CA245321FF225C6259625DF8044B986048
:101908005A62704743F400631843EDE72DE9F0414C
:101918004FF42054C4F200040027236B646B03F4D3
:10192800800EC3F30548C3F3062CC4F3042604F061
:101938003F0503F07F034FEA1E4EC4F3423481F89B
:10194800008081F801C08B7081F803E0D770567071
:1019580095701470A8BB0E784C788B7837092509D8
:10196800180906F00F0604F00F0403F00F0307EB45
:10197800870705EB850500EB800004EB450503EBC5
:10198800400006EB47070F704D70887055789078C7
:1019980013782E090409190906EB860605F00F05C8
:1019A80004EB840400F00F0001EB810103F00F0346
:1019B80005EB460600EB440403EB410156709470B6
:1019C8001170BDE8F08100BF4FF42053C4F200034A
:1019D800986B70474FF42053C4F200031A6C19B186
:1019E80042EA40001864704722EA400018647047D1
:1019F8004FF42053C4F200031A6C19B922EA00000C
:101A08001864704710431864704700BF4FF42053A0
:101A1800C4F200031A6C22F4C0521A641A6C104300
:101A2800186470474FF42053C4F200031A6C22F470
:101A3800E0621A641A6C1043186470474FF420531C
:101A4800C4F200031A6C22F4C0421A641A6C1043E0
:101A5800186470474FF42053C4F200031A6C18B985
:101A680022F080021A64704742F080021A647047BC
:101A78004FF42053C4F200031A6C18B942F4004220
:101A88001A64704722F400421A64704782B042F622
:101A98005003C4F20003002201920193019B03EB5F
:101AA80080000190019B196002B0704782B042F635
:101AB8005003C4F20003002201920193019B03EB3F
:101AC80080000190019B186802B070474FF42053C2
:101AD800C4F200031A6C22F480321A641A6C1043A0
:101AE800186470474FF42053C4F200031A6C22F4B0
:101AF80000321A641A6C1043186470474FF420536C
:101B0800C4F200031A6C22F480221A641A6C10437F
:101B18001864704710B54FF42054C4F20004CA2268
:101B2800532362626362E3681A070AD5E3681B07F6
:101B380007D54FF4805301E0013B02D0E268120759
:101B4800FAD44FF42053C4F20003DA6812F0080202
:101B580018BF002004D19C68E40648BF104606D58B
:101B68004FF42053C4F20003FF21596210BD014312
:101B7800D962FFF731FA003018BF0120F0E700BF43
:101B88004FF42053C4F2000310B45322CA245C62F9
:101B98005A629A6899B920F0040122EA01029A600F
:101BA8001A6C00F0040022EA000018644FF4205375
:101BB800C4F20003FF225A625DF8044B704720F01C
:101BC80004010A439A601A6C00F004001043186478
:101BD800ECE700BF4FF42052C4F2000243F67F73D3
:101BE800D268C0F20103134003420CBF0020012059
:101BF800704700BF4FF42053C4F2000380B2D96885
:101C080040F0800201F0800161EA0202DA60704768
:101C18004FF42053C4F2000310B41A6C9968DC68BE
:101C280002F0040202EAD03200EA0103134308BFBB
:101C3800184605D0A4B214EA10140CBF00200120E5
:101C48005DF8044B704700BF4FF42053C4F2000303
:101C5800C0F30F10D96840F0800201F0800161EAFA
:101C68000202DA60704700BF08B50023C4F202031D
:101C780098423CD04FF48063C4F20203984240D0AB
:101C88004FF40063C4F20203984244D04FF4406317
:101C9800C4F20203984248D04FF48053C4F20203BE
:101CA80098424CD04FF4A053C4F20203984250D04B
:101CB8004FF4C053C4F20203984254D04FF4E05397
:101CC800C4F20203984258D04FF40053C4F20203FE
:101CD800984200D008BD4FF480700121FEF7BAFF8A
:101CE8004FF480700021BDE80840FEF7B3BF012023
:101CF8000146FEF7AFFF01200021BDE80840FEF7CE
:101D0800A9BF02200121FEF7A5FF02200021BDE89E
:101D18000840FEF79FBF04200121FEF79BFF042027
:101D28000021BDE80840FEF795BF08200121FEF715
:101D380091FF08200021BDE80840FEF78BBF102066
:101D48000121FEF787FF10200021BDE80840FEF7BB
:101D580081BF20200121FEF77DFF20200021BDE862
:101D68000840FEF777BF40200121FEF773FF4020AF
:101D78000021BDE80840FEF76DBF80200121FEF775
:101D880069FF80200021BDE80840FEF763BF00BF5F
:101D980000222DE9F04313460E6801274FF0030C8B
:101DA80004E00133102B02F102022ED007FA03F4EB
:101DB80004EA0605A542F4D1D0F8008091F804E0C1
:101DC8000CFA02F4E44304EA0808C0F80080D0F8EA
:101DD80000800EFA02F90EF1FF3E5FFA8EFE49EA24
:101DE8000808BEF1010FC0F8008010D9C56891F845
:101DF80007E02C40C460C5680EFA02F401332C4396
:101E0800102BC46002F10202D0D1BDE8F083D0F8F3
:101E1800089091F8058091F806E004EA0909C0F8ED
:101E28000890D0F8089008FA02F848EA0908C0F8BB
:101E38000880D0F8048028EA0505456045680EFA50
:101E480003FE1FFA8EFE4EEA05054560CEE700BF89
:101E580000234FF6FF720260037143718371C371EF
:101E6800704700BF82B04FF480330193019B0B434E
:101E78000193019BC361C161019BC361C369019364
:101E8800C369019302B07047036919420CBF00206F
:101E980001207047006980B2704700BF436919424A
:101EA8000CBF002001207047406980B2704700BF16
:101EB80001837047418370470AB9418370470183A2
:101EC800704700BF4161704743695940416170479D
:101ED800CB0800EB830001F0070110B48900046A05
:101EE8000F238B4024EA03030362036A5DF8044B63
:101EF8008A4013430362704708B54FF48053C4F215
:101F08000103984228D04FF48843C4F20003984252
:101F18002CD04FF49043C4F20003984232D04FF4CF
:101F28009843C4F20003984238D04FF4A043C4F257
:101F3800000398423ED04FF4A053C4F201039842E4
:101F480000D008BD20200121FEF7BCFE2020002182
:101F5800BDE80840FEF7B6BE10200121FEF7B2FE2C
:101F680010200021BDE80840FEF7ACBE4FF4003059
:101F78000121FEF799FE4FF400300021BDE808402A
:101F8800FEF792BE4FF480200121FEF78DFE4FF43C
:101F980080200021BDE80840FEF786BE4FF40020EF
:101FA8000121FEF781FE4FF400200021BDE8084022
:101FB800FEF77ABE4FF480100121FEF775FE4FF44C
:101FC80080100021BDE80840FEF76EBE028ACB886B
:101FD80022F440521204F0B5120C04461A430F8939
:101FE8008E8848890D4689892282A38923F4B053B3
:101FF80047EA060223F00C0302431B0492B21B0CAF
:102008001343A381A38A23F440731B041B0C85B0DC
:102018000B43A3826846FEF751FDA6890298039BED
:102028004FF4A0514FF48052C4F20101C4F20102EE
:10203800944218BF8C4232B218BF0346002A2A685D
:10204800A08903EB8303B4BF5200920003EB830320
:10205800B3FBF2F348F21F52C5F2EB12A2FB035195
:1020680000B264254909002801FB1533B5BFDB0020
:102078001B0132333233B5BFA2FB0302A2FB03526A
:10208800C2F34212C2F343120901114389B22181FA
:1020980005B0F0BD00234FF416510C2201604281B7
:1020A8008380C38003818381704700BF30B40A886E
:1020B8004D888C88038AC9882A43224323F4706395
:1020C8000A431B0492B21B0C1343038230BC7047B3
:1020D8000023038043808380C3807047838929B9A4
:1020E80023F400531B041B0C838170479BB243F4F9
:1020F80000538381704700BF038B03F47F4303833E
:10210800038B9BB219430183704700BF838919B9B8
:10211800C3F30E03838170476FEA43436FEA534367
:102128009BB28381704700BF838A29B923F4006377
:102138001B041B0C838270479BB243F400638382A9
:10214800704700BFC1F30801818070478088C0F3E1
:1021580008007047038A23F00F031B041B0C03823B
:10216800038A9BB219430182704700BF838929B94A
:1021780023F002031B041B0C838170479BB243F0BE
:1021880002038381704700BF838923F400631B0423
:102198001B0C838183899BB219438181704700BFDF
:1021A800038A23F020031B041B0C0382038A9BB2BF
:1021B80019430182704700BF038A29B923F4804379
:1021C8001B041B0C038270479BB243F480430382B9
:1021D800704700BF83899BB243F001038381704736
:1021E800838A29B923F008031B041B0C83827047D8
:1021F8009BB243F008038382704700BF038BDBB2B6
:102208000383038B9BB243EA01210183704700BF1C
:10221800838A29B923F020031B041B0C838270478F
:102228009BB243F020038382704700BF838A29B999
:1022380023F010031B041B0C838270479BB243F0EE
:1022480010038382704700BF838A23F004031B04B2
:102258001B0C8382838A9BB219438182704700BF1B
:10226800838A29B923F002031B041B0C838270475D
:102278009BB243F002038382704700BF838A9BB2FC
:102288001AB923EA01018182704719438182704794
:1022980001F01F0310B4C1F342110124A14204FA52
:1022A80003F308BF0C3003D002290CBF10301430E0
:1022B80004682AB924EA030303605DF8044B7047F5
:1022C800234303605DF8044B704700BF038819423D
:1022D8000CBF002001207047C94389B201807047B4
:1022E800C1F3421330B401F01F020124012B04FA98
:1022F80002F416D0022B0CBF028A828A92B22240C4
:1023080003880125090A05FA01F19BB219420CBF9D
:1023180000200120002A0CBF002000F0010030BC82
:102328007047828992B22240EAE700BF090A012376
:1023380003FA01F1C94389B20180704708B54FF02B
:1023480000500121FEF7B0FC4FF000500021BDE81D
:102358000840FEF7A9BC00BF70B491E860004FF4D4
:10236800E8438C68CA68C4F2000346EA05010C43D6
:102378001D6840F6FE762243864002FA00F025EA00
:1023880006021043186070BC704700BF002303604A
:1023980043608360C36070474FF4E843C4F20003AE
:1023A80039B91A68012101FA00F022EA0000186020
:1023B80070471A68012101FA00F01043186070474D
:1023C8004FF4E843C4F20003000939B95A680121FF
:1023D80001FA00F022EA0000586070475A680121AB
:1023E80001FA00F010435860704700BF4FF4E8430B
:1023F800C4F200035A6818B922F003025A60704701
:1024080042F003025A6070474FF4E843C4F20003F5
:10241800814022B91A6822EA0101196070471A68D6
:1024280011431960704700BF82B04FF4E843C4F20B
:102438000003002201920193019B08331844019084
:10244800019B196002B0704782B04FF4E843C4F2B0
:102458000003002201920193019B14331844019058
:10246800019B196002B0704747F220430828C4F264
:1024780000030CBF42EA012142EA0141C150704702
:1024880082B04FF4E843C4F20003002201920193A2
:10249800019B2C3303EB90000190019B186880B2DC
:1024A80002B070474FF4E843C4F2000341B91A6818
:1024B8004FF4805101FA00F022EA000018607047DA
:1024C8001A684FF4805101FA00F010431860704701
:1024D8004FF4E843C4F20003814022B91A6822EAA3
:1024E8000101196070471A6811431960704700BFED
:1024F8004FF4E843C4F2000381405B6B19420CBF00
:1025080000200120704700BF4FF4E843C4F20003E5
:1025180081405963704700BF4FF4E843C4F2000399
:1025280081401A68586B084003D011420CBF002044
:10253800012070474FF4E843C4F200038140596317
:10254800704700BF08B54FF080500121FEF7ACFB83
:102558004FF080500021BDE80840FEF7A5BB00BF42
:102568002023C4F20E231860704700BF4FF4E043E5
:10257800C4F200031A6822F0E002104318607047A2
:102588001023C4F20E231860704700BFA023C4F2C2
:102598000E231860704700BFA423C4F20E231860EE
:1025A800704700BF4FF4E043C4F200031A6818B143
:1025B80042F480421A60704722F480421A607047E1
:1025C8002423C4F20E231860704700BF4FF4E04282
:1025D800C4F2000210B414684FF46D4324F00304ED
:1025E800CEF20003204310601A69012942F0040268
:1025F8001A610BD020BF4FF46D43CEF200035DF893
:10260800044B1A6922F004021A61704730BFF2E7DE
:102618004FF4E043C4F200034FF46D42196841F0EF
:10262800040119601968CEF2000241F00201196034
:10263800136943F00403136130BF70474FF4E0435C
:10264800C4F200035B6818420CBF002001207047E9
:102658004FF4E043C4F200031A6842EA80001860AD
:10266800704700BF10EE103A23F00040C10D7F39CB
:10267800162910B420DC00291C462ADB4FF6FF700F
:10268800C0F27F00084118421ED0DFED1C7A70EEC0
:10269800277AF5EEC07AF1EE10FA15DD002BBEBFF1
:1026A8004FF4000343FA01F1641824EA000000EE35
:1026B800100A5DF8044B7047B0F1FF4F24BF07EED6
:1026C800903A37EEA70AF4D200EE103A5DF8044BC0
:1026D8007047DFED0A7A70EE277AF5EEC07AF1EEF0
:1026E80010FAF1DD002B02DB9FED050AE1E7002877
:1026F800BFEE000A08BF00EE103ADAE7CAF24971E5
:102708000000000000B510EE102A40F6D87322F041
:102718000042C3F649739A4283B01BDDB2F1FF4F02
:10272800A8BF30EE400A02DB03B05DF804FB684640
:1027380000F0C8FC00F0030001289DED000ADDED63
:10274800010A15D002280DD0A8B100F04FFEB1EE55
:10275800400AE9E7DFED0A0A002001F0B3F903B007
:102768005DF804FB012001F0ADF9B1EE400ADBE7AA
:1027780000F03CFED8E7012001F0A4F9D4E700BF3F
:102788000000000070B52DED048B40F22406C2F263
:1027980000068AB0B0EE409AB0EE608A00F0ACF95C
:1027A80096F900300133F0EE408A04D0B0EE480AC2
:1027B80001F0E2F928B9B0EE680A0AB0BDEC048B62
:1027C80070BDB0EE490A01F0D7F9034678BBB5EE03
:1027D800408AF1EE10FAEED149F66002C0F6000226
:1027E800012119EE100A08938DE8060001F062FC39
:1027F800CDE9020118EE100A01F05CFC96F90040E0
:1028080000230022C3F6F073B4F1FF3F18BF022C77
:10281800CDE90401CDE9062336D1DDE9060101F051
:1028280037FF00EE100A0AB0BDEC048B70BDB5EEA0
:10283800409AF1EE10FA34D1B5EE408AF1EE10FA72
:1028480073D149F66003C0F600030022012119EE96
:10285800100A8DE80A00089201F02CFCCDE902016B
:1028680018EE100A01F026FC96F900400022002319
:10287800CDE90401CDE9062334B100230022C3F6D3
:10288800F073CDE90623C8E7684601F009FA002885
:102898007DD0089B002BC0D006F01EED089B03607E
:1028A800BBE7B0EE680A01F05DF90446002873D072
:1028B800F5EE408AF1EE10FA7FF47DAFB0EE490AEA
:1028C80001F050F900283FF476AFB0EE480A01F065
:1028D80049F900283FF46FAF49F66003C0F60003DA
:1028E8000022042119EE100A8DE80A00089201F06E
:1028F800E1FBCDE9020118EE100A01F0DBFB96F9C5
:10290800004000220023022CCDE90401CDE9062372
:1029180000F09B80684601F0C3F9002800F095801C
:10292800089B002B3FF479AFB6E7B0EE480A01F0F8
:1029380019F900283FF43FAFB5EEC08AF1EE10FA5E
:102948007FF539AF49F66003C0F600030022012184
:1029580019EE100A8DE80A00089201F0ABFBCDE9E8
:10296800020118EE100A01F0A5FB3478CDE9040144
:1029780000220023002C3BD0CFF6F073022CCDE9C7
:10298800062337D106F0A8EC21230360C8E706F038
:10299800A4EC212303607CE7B0EE490A01F0E2F8D9
:1029A800002885D0B0EE480A01F0DCF800283FF492
:1029B8007FAFB0EE680A01F0DFF849F6600302461F
:1029C800C0F60003E0B9012119EE100A08928DE85B
:1029D8000A0001F06FFBCDE9020118EE100A01F0C0
:1029E80069FB3478CDE90401002C33D1002200239F
:1029F800CDE90623684601F053F9002890D1C1E7D4
:102A0800032219EE100A8DE80C00089401F052FB1D
:102A1800CDE9020118EE100A01F04CFB96F90030DE
:102A2800CDE904010BBB4FF6FF73B5EEC09A4FF02A
:102A38006042C4F2EF73F1EE10FACDE906233CD4FC
:102A480096F90030022B7FF465AF06F046EC22239E
:102A5800036065E70020002102460B4601F0A8FC50
:102A6800022CCDE906018DD0C4E70023B5EEC09A4B
:102A78000022C7F6F073F1EE10FACDE90623DFD590
:102A8800F6EE007A68EE277A17EE900A01F012FB4C
:102A980004460D4645EC104B01F004F92046294642
:102AA80053EC102B01F0C2FD0028C9D100230022ED
:102AB800CFF6F073CDE90623C2E7F6EE007A68EEAA
:102AC800277A17EE900A01F0F5FA04460D4645EC10
:102AD800104B01F0E7F82046294653EC102B01F083
:102AE800A5FD0028ACD14FF6FF734FF06042CCF241
:102AF800EF73CDE90623A3E72DE9F04710EE907AAE
:102B080037F000452DED028B10EE904A10EE108A3A
:102B18004BD028F00046B5F1FF4FD8BFB6F1FF4FB4
:102B280010EE109AD4BF002301233BDCB8F1000F4C
:102B3800A8BF9A4672DBB5F1FF4F46D0B5F17E5F6C
:102B48004DD0B4F1804F04BF06EE108A26EE060A77
:102B58002DD0B4F17C5F00EE108A02D1B9F1000FDC
:102B68007EDA00F0F7FF002E45D029F04043B3F19C
:102B78007E5F40D04FEAD97909F1FF395AEA090254
:102B880074D0B5F19A4F40F3B1804FF6F773C3F69E
:102B98007F739E4200F30982002CC0F20E829FEDE3
:102BA8003A0A04E0B6F17E5F05D1B7EE000ABDEC43
:102BB800028BBDE8F087BDEC028B49F68800C0F6B1
:102BC8000000BDE8F04700F0F3BFB6F17E5FECD03F
:102BD8003EDD002CA8BF00EE107AE8DADFE7002C13
:102BE800A8BF00EE108AE2DA05EE908AB7EE000A76
:102BF80080EE250ADBE7002CBCBFF7EE007A87EEF3
:102C0800800AB9F1000FD2DAA6F17E565AEA060612
:102C180033D130EE400A80EE000AC8E7B5F1974F8D
:102C280013DAB5F17E5F0EDBEA15C2F1960245FABA
:102C380002F101FA02F2AA4204BF01F00101C1F156
:102C4800020A3FF47BAF9A4678E74FF0020A72E730
:102C5800002CBCBF04EE107AB1EE440A9FDAA6E756
:102C6800BDEC028BBDE8F04700F06EBB04EE108AA5
:102C780034EE440A80EE000A99E7BAF1010F08BF62
:102C8800B1EE400A93E700BF000000000000804B4F
:102C980042F1533E55326C3E05A38B3EB76DDB3E89
:102CA8009A99193F4F38763FA0C39D360038763F32
:102CB8008CBEBF351872313F0072313F4CBB313387
:102CC8000EEADDB555B38A38610B36BBABAA2A3E8E
:102CD8003CAA3833CAF249716042A20DABAAAA3E97
:102CE8003BAAB83F70A5EC3600AAB83FB6F5000F6E
:102CF800BCBF5FED1A7A60EE277A4CF27143B8BF19
:102D080017EE906AC0F21C034FEAE652C6F31606A5
:102D1800B4BF6FF0170000209E42A2F17F02D8BF17
:102D280000211044D8BF0D4646F07E520EDD4BF20E
:102D3800D633C0F25D039E42CDBF00214FF400118F
:102D480001250130C4BFA2F500020D4649F2E8236F
:102D5800C0F6000303EB850305EE102AD3ED003A15
:102D680075EE237AB7EE003A83EE273A521042F016
:102D7800005202F580220A4475EE635A5FED3C7AF0
:102D880065EE836A1FED3D6A26EEA67A02EE902A6A
:102D9800A7EE276A16EE902A1FED414A22F47F62B9
:102DA800A6EE074A22F00F0207EE902A5FED354A99
:102DB800B1EE676AE4EE074A72EEE33AE6EE225AAB
:102DC80035EE634A1FED4B5AE6EE045AA4EE875AD5
:102DD8005FED4D4A65EE833AE5EE074A76EEA75A6F
:102DE80027EE077A65EEA35AB0EE084AE7EE245AB2
:102DF800B0EE447AA7EEA77A93ED023A37EE257A39
:102E08001FED582A17EE102A22F47F6222F00F02D3
:102E180007EE102A37EE445A93ED044AA6EE275AD5
:102E28005FED5F2A75EEC55A5FED604A65EEA66AEA
:102E380005EE900AE3EE876AB8EEE55AF0EE665AB8
:102E4800E7EE875A15EE902A22F47F6222F00F03EC
:102E580005EE903AE6EE075A07EE903A76EEE56A06
:102E680066EE826AE7EEA26A76EE836AB0EE667A6A
:102E7800A7EEA47A37EE047A37EE057A17EE103A01
:102E880023F47F6323F00F0306EE103A36EE457AFB
:102E980037EE447AA7EEE47A76EEC77A24F47F64B4
:102EA80024F00F0406EE907A04EE104A05EE903AEC
:102EB80036EEC47A66EEA77A65EE846AE7EE257A7E
:102EC8000AF1FF3A37EEA67A5AEA090A17EE103ADB
:102ED800B7EE008ABFEE006A08BFB0EE468A002B44
:102EE80023F0004240F3A780B2F1864F75DC69D029
:102EF800B2F17C5FDCBF0022104675DC23F47F63EF
:102F080023F00F0307EE103A1FED976A77EE666A13
:102F180027EE066A77EEE67A5FED9A6AA7EEA66A6A
:102F28005FED9B4AF0EE467AE7EE247A5FED9D5A14
:102F380067EEA76A1FED9E5AA6EEA55A5FED9F5A47
:102F4800E5EE265A1FEDA05AA5EEA65A5FEDA15A46
:102F5800E5EE265AB0EE674AA5EEE64AF0EE675A65
:102F6800E7EE645AB0EE005AB0EE657A74EE456A40
:102F780067EE845A36EE477AC5EEA66AA7EE877AD8
:102F8800B7EE000A36EEC77A77EE677A30EE670A50
:102F980010EE103A1344B3F5000FA8BF00EE103A34
:102FA800C0F28D8028EE000A01E60723C3F680737D
:102FB8009E4255DD002C7FF7F2AD1FEDBA0A20EED8
:102FC800000AF4E51FEDBE6A37EE667A37EE866AC8
:102FD800B4EEC76AF1EE10FA06DD5FEDC27A28EEAC
:102FE800270A20EE270AE2E5D2154FF400017E3ABF
:102FF80041FA02F21A44C2F3C7504FF6FF71A0F12A
:103008007F05C0F27F01294122EA010106EE101A6C
:10301800C2F3160476EEC66AC0F1960044F40004C2
:1030280044FA00F0002B37EEA67AB8BF4042C2053A
:1030380017EE103A62E70021C4F216318A4208DC22
:103048007FF456AF37EE667AF4EEC77AF1EE10FAEF
:10305800CAD85FEDDF7A28EE270A20EE270AA6E510
:10306800F7EE007A30EE670A5FEDE47AF1EE406A37
:10307800B5EE007AE6EE877AB6EE007AA7EEC07A69
:1030880020EE006A5FEDEA7A26EE077A1FEDEB6A1A
:1030980067EEC77A1FEDEC7AE0EE067AF0EE675A33
:1030A800E0EE075A15EE903A23F47F6323F00F03FE
:1030B80006EE103AA6EE876A77EEC67AEEE600F0DC
:1030C8007DFD6FE770B510EE102A40F6D87322F038
:1030D8000044C3F649739C4286B010EE106A054658
:1030E8007DDD4CF6E333C4F216039C422ADC4FF430
:1030F8007D63002ADFED8B7A24F00F04C3F6C973D1
:1031080040F3ED809C42F0EE406A70EE677A09BFAA
:10311800DFED856A9FED857A9FED857A77EEE67A11
:1031280016BF77EEC76A77EEC76A012077EEE67AB0
:10313800C5ED006A37EEC77A08BF012085ED017A30
:1031480006B070BD4FF47863C4F249339C4255DD34
:10315800B4F1FF4F4ADAE215863AA4EBC25407EEFF
:10316800104AFDEEC77ADFED736AF8EEE77A37EEBC
:10317800677ACDED037A27EE267AFDEEC77AF8EE68
:10318800E77A37EE677ACDED047A27EE267AB5EE40
:10319800407AF1EE10FA8DED057A18BF032306D1B7
:1031A800F5EE407AF1EE10FA0CBF012302236248D3
:1031B80002210190009103A8294600F09BF9002EF6
:1031C800BEDA95ED007AD5ED017AB1EE477AF1EEE7
:1031D800677A404285ED007AC5ED017AB0E70023B1
:1031E80085ED000A4360002006B070BD70EE407A9D
:1031F8000020C5ED017AC5ED007AA1E700F0AAFC30
:10320800DFED4E7AB6EE007AA0EE277ADFED455A6A
:10321800BDEEC77ADFED457AF8EEC76A17EE100AF9
:10322800B1EE666A1F28A6EE250A66EEA77A21DCAB
:1032380049F20033C0F60003411E24F0FF0253F8A0
:1032480021309A4216D030EE677A85ED007A30EE5A
:10325800470A002E70EE677AC5ED017ABFF670AFA7
:10326800B1EE477AF1EE677A85ED007AC5ED017A1D
:10327800404265E730EE677AE41517EE102AC2F38C
:10328800C753E31A082BE0DD9FED277AF0EE405A8A
:10329800E6EE075A9FED265A70EE657AE6EE077A53
:1032A800D6EE857A35EEE77A17EE102AC2F3C753C1
:1032B800E41A192CDCBF85ED007AB0EE650AC6DD8C
:1032C8009FED1F7AB0EE650AA6EE070A9FED1D5A1C
:1032D80075EEC07AE6EE077AD6EE857AB3E79C42B9
:1032E80070EE277A08BFDFED106AB0EE407A0BBFA8
:1032F80077EEA67A9FED0D7A9FED0D7A77EE876AC5
:103308000CBF77EE876A4FF0FF3077EEE67A08BF9A
:103318004FF0FF3037EE877AC5ED006A85ED017A08
:103328000EE700BF800FC93F0044353743443537A7
:1033380008A3852E000080438093000884F9223F6B
:1033480000A3852E32318D2410EE103A23F000426E
:10335800B2F1FF4F70B442D2002A3ED0002BBCBF5E
:1033680030EE400A80EE000A37DBB2F5000F4FEA74
:10337800E3510AD213F4000235D15B00180202F1BE
:103388000102FAD5C2F101021144A1F17F02C3F38F
:103398001603D10743F4000348BF5B00002556100D
:1033A8005B002C4619214FF08072A0189842DEBFAE
:1033B800C0EB03038418AD1801394FEA43034FEA01
:1033C8005202F2D113B105F001031D446D1005F14D
:1033D8007C5505EBC65500EE105A70BC7047A0EE40
:1033E800000A70BC704701221144CEE710EE103A73
:1033F80023F00043B3F1485F2CDAFDEEC07A17EEF4
:10340800903A002B67D060EE007ADFED346A9FEDCA
:10341800347AA7EEA67ADFED336AE7EE276A9FEDE6
:10342800327AA6EEA77ADFED316AE7EE276A9FEDDA
:10343800307AA6EEA77A27EE277A20EEC00AF6EEB3
:10344800006AA7EE870AB7EE007A97EEA60A37EE6B
:10345800400A704760EE007ADFED206A9FED207A1F
:10346800A7EEA67ADFED1F6AE7EE276A9FED1E7AC0
:10347800A6EEA77ADFED1D6AE7EE276A9FED1C7AB4
:10348800A6EEA77A49F69912C3F69962934227EEF7
:10349800277AD2DD0022C3F648729342DCBF03F1DB
:1034A8007F4306EE903A60EEC00AD4BFF7EE005AAA
:1034B800F5EE026AB6EE006AD8BF75EEE65AE7EE98
:1034C800870AD7EE866AC8BFF6EE075A76EEE00A94
:1034D80035EEE00A7047B7EE000A70474ED747ADA1
:1034E800F6740F317CF293B4010DD037610BB6BA84
:1034F800ABAA2A3D2DE9F04F2DED048BD9B0161D4E
:10350800D51E49F2986448BF3546C0F60004669E49
:10351800039154F82680EC1024EAE4741D4605F162
:10352800FF39E34302EBC303824619EB0800029319
:103538000494C9EB040316D4679A184402EB830475
:1035480001301CA90022002BA5BFA65807EE106A5F
:10355800DFEDCE7AF8EEC77A01338342E1EC017AE7
:1035680002F10402EFD1B8F1000F4FEA880B1DDB1E
:103578001CAB45AE03EB85045E4444A8B9F1000FCB
:10358800C0F2C281DFEDC17A514622460023F1EC38
:10359800016A32ED017A0133AB42E6EE877AF6D161
:1035A800E0EC017AB04204F10404E7D108F1FF31FC
:1035B8000DF1200C0CEB81024446CDF81480DFEDB0
:1035C800B08A9FEDB08ADDF808800691E34407923F
:1035D800A60058AB3344002C13ED140A1BDDACF1E4
:1035E800040144AA3244314407AB60EE287AB0EEB5
:1035F800407AFDEEE77A72ED016AF8EEE77AA7EE17
:10360800C87A37EEA60ABDEEC77A17EE100A43F855
:10361800040F8B42E9D14046CDF800C000F0CEFA45
:10362800B0EE409AB4EE000A29EE000AFFF71AF845
:10363800F2EE007AA0EE679AB8F1000FFDEEC99A93
:10364800DDF800C0F8EEE97A39EE679A40F39E801B
:10365800611EC8F108005CF8213043FA00F202FA52
:1036680000F01B1A4CF8213019EE901AC8F1070027
:10367800114443FA00F009EE901A0190019B002BC7
:103688002DDD19EE902A002C02F1010209EE902A94
:1036980040F3388163460CEB0607002153F8042BEE
:1036A800C2F1FF0011B9C2F5807012B143F8040CE1
:1036B8000121BB42F2D1B8F1000F0DDDB8F1010FC5
:1036C80000F00381B8F1020F06D1621E5CF82230C7
:1036D80003F03F034CF82230019B022B5ED0B5EE7D
:1036E800409AF1EE10FA6DD10599671EB9420ADCCD
:1036F8006644002356F8042D5E4543EA0203F9D1D7
:10370800002B40F0B281069A5CF82230002B40F082
:10371800A981079B4FF0010E53F8042D0EF1010EFD
:10372800002AF9D0A644671C77452DDC049B049831
:10373800679A1C4409EB07061CAB704444A902EBCA
:10374800840403EB860601EB870702EB800054F83C
:10375800042F07EE902AF8EEE77AB9F1000FE6ECAD
:10376800017ADFED4A7A0BDB514632460023F1EC51
:10377800016A32ED017A0133AB42E6EE877AF6D17F
:103788008442E7EC017AE2D1744621E740F0A58053
:10379800631E5CF823301B1201936FE7B7EE000A33
:1037A80030EE499A00299AD04046CDF800C000F082
:1037B80005FA39EE409ADDF800C0B5EE409AF1EE10
:1037C80010FA91D0029ECDF800C0B0EE490A7042BE
:1037D800DDF8148000F0F2F9DFED2A7AB4EEE70A9A
:1037E800F1EE10FADDF800C0C0F261819FED247A95
:1037F80020EE077A029BBDEEC77A671CB8EEC77A3F
:103808000833A7EE670ABDEEC77ABDEEC00A17EE09
:10381800100A10EE106A4CF824604CF82700029346
:103828000298CDF800C0B7EE000A00F0C7F9002FE3
:10383800DDF800C041DB7D1CAA0044AC9FED107A86
:103848000CEB0203224473ED017AF8EEE77A634544
:1038580067EE807A20EE070A62ED017AF3D144AE72
:1038680006EB87040020B8F1000FB8BFDFED077A38
:1038780019DB05492246DFED057A00230AE000BF7F
:103888000000803B00008043A49600080000000070
:10389800834208DCF1EC016AB2EC017A0133984505
:1038A800E6EE877AF4DA58A901EB80030130854205
:1038B800A4F1040443ED287AD5D1669A032A00F2CC
:1038C8008180DFE802F0B988882B621E5CF822301C
:1038D80003F07F034CF82230FEE6F6EE007AB4EEF1
:1038E800E79AF1EE10FABCBF00220192FFF6F7AE9C
:1038F80019EE902A02210132002C019109EE902A3A
:103908003FF7C8AE0021D6E65FED207AE0EC017AF9
:10391800B04204F104047FF431AE47E6002F40F3CF
:10392800B980B90058AB7A1C30AE0B4406EB820262
:1039380053ED287A31A8134653ED026A36EEA77A7A
:1039480076EEC76A76EEA76AF0EE477A63ED016A0B
:10395800834203ED017AEFD1012F40F39B8058A8F1
:10396800014451ED287A134632A953ED026A36EE26
:10397800A77A76EEC76A76EEA76AF0EE477A63ED25
:10398800016A8B4203ED017AEFD15FED407A13466D
:1039980033ED017A994277EE877AF9D1019C002CB0
:1039A8007DD0DDED306A9DED317A0399F1EE677ACD
:1039B800F1EE666AB1EE477AC1ED027AC1ED006AAE
:1039C80081ED017A19EE902A02F0070059B0BDEC9A
:1039D800048BBDE8F08F002FB8BF5FED547A0BDB86
:1039E80030AA7B1C5FED577A02EB830333ED017A33
:1039F800934277EE877AF9D10199B1EE677A09B9DE
:103A0800B0EE677ADDED306A039A002F82ED007A16
:103A180076EEE77A08DD31AB03EB8707B3EC017A82
:103A2800BB4277EE877AF9D1019B0BB1F1EE677A49
:103A3800039CC4ED017AC5E7002F40DB7B1C30AA4C
:103A48005FED6E7A02EB830333ED017A934277EEF2
:103A5800877AF9D1019C0CB1F1EE677A039EC6ED25
:103A6800007AAFE74FF0010E5CE6029C5CF8273065
:103A7800DDF81480083C0294002B7FF4D1AE0CEBE7
:103A88008703224653F8041D013F083A0029F9D05C
:103A98000292C5E6019C5FED837A002C81D1039EDA
:103AA800309A319B3260C6ED027A73608AE7BDEEC8
:103AB800C00A274610EE101A4CF82410B0E65FED45
:103AC8008D7AC7E710EE103A23F00043B3F1485F50
:103AD80004DAFDEEC07A17EE903A23B360EE007A6E
:103AE800DFED156A9FED157AA7EEA67ADFED146A69
:103AF800E7EE276A9FED137AA6EEA77ADFED126A42
:103B080027EE806AE7EE276A70B166EEC66AB6EEFF
:103B1800007AE0EE876A9FED0D7AD6EEA70AE6EE08
:103B2800070A30EE600A70479FED097AA7EEA67A79
:103B3800A7EE060A704700BFD3C92E2F342FD7B27D
:103B48001BEF3836010D50B98988083CABAA2A3ECC
:103B5800ABAA2ABE10EE102A22F0004300EE103A5B
:103B6800704700BF10EE103A23F00040B0F1FF4F4D
:103B7800ACBF00200120704710EE103A33F000402F
:103B880001D102207047A0F50003B3F1FE4F01D226
:103B9800042070474FF6FE73C0F27F03421E9A421C
:103BA80001D803207047B0F1FF435842584170478D
:103BB8009FED010A704700BF0000C07F08B510EEF6
:103BC800103A33F0004110EE102A2DED028B08BF99
:103BD80000EE103A16D0B1F1FF4F24BF00EE103AB4
:103BE80030EE000A0ED2B1F5000F0ED3C90D014414
:103BF800FE2930DC00291CDD22F0FF4242EAC152D6
:103C080000EE102ABDEC028B08BD07EE103ADFED7E
:103C1800207A43F6B042CFF6FF7227EE277A904219
:103C280017EE103A22DBC3F3C75117EE102A1939E1
:103C3800DDE711F1160F1EDA4CF2503290420ADC21
:103C48009FED148A00EE903AB0EE480A00F0C2F8F0
:103C580020EE080AD6E79FED108A00EE903AB0EE03
:103C6800480A00F0B7F820EE080ACBE79FED090AEA
:103C780027EE000AC6E7193122F0FF4242EAC15294
:103C8800DFED067A07EE102A27EE270ABAE700BF0B
:103C98000000004C6042A20DCAF2497100000033D6
:103CA80000207047F0B551EC100BC1F30A52A2F294
:103CB800FF33132B83B00F4610EE10EA4FEAD1768C
:103CC80039DC002B59DB4FF6FF72C0F20F021A41A4
:103CD80002EA010404432CD0520802EA010E5EEA0B
:103CE800000E0DD04FF4802721EA020247FA03F1B3
:103CF80042EA0107132B0CBF4FF0004E4FF0000EA5
:103D080049F2D063C0F6000303EBC6063D46D6E988
:103D1800006772462B463046394600F06DF8CDE90B
:103D2800000132463B46DDE9000100F063F841EC52
:103D3800100B03B0F0BD332B0CDDB3F5806FF8D159
:103D480051EC100B10EE102A0B4600F055F841EC20
:103D5800100BEEE7A2F213424FF0FF33D3400342B9
:103D6800E7D05B0803421FBF4FF0804E20EA0303F1
:103D78004EFA02F243EA020EC2E721F0004303437F
:103D8800D7D0C1F3130303435D422B4349F2D060FC
:103D98001D0BC0F600004C0C00EBC60005F400211A
:103DA80053EC102B41EA4443D0E90045204629460C
:103DB80000F022F8CDE900012B462246DDE900019A
:103DC80000F018F821F0004343EAC67141EC100BEB
:103DD800AFE700BF10EE101A21F0004210EE901A63
:103DE80001F00043134300EE103A704781F00041A0
:103DF80002E000BF83F0004330B54FEA41044FEAC8
:103E0800430594EA050F08BF90EA020F1FBF54EA62
:103E1800000C55EA020C7FEA645C7FEA655C00F0FE
:103E2800E2804FEA5454D4EB5555B8BF6D420CDDCF
:103E38002C4480EA020281EA030382EA000083EA52
:103E4800010180EA020281EA0303362D88BF30BDF2
:103E580011F0004F4FEA01314FF4801C4CEA113148
:103E680002D0404261EB410113F0004F4FEA0333A7
:103E78004CEA133302D0524263EB430394EA050F32
:103E880000F0A780A4F10104D5F1200E0DDB02FAA1
:103E98000EFC22FA05F2801841F1000103FA0EF235
:103EA800801843FA05F359410EE0A5F120050EF1FB
:103EB800200E012A03FA0EFC28BF4CF0020C43FA2C
:103EC80005F3C01851EBE37101F0004507D54FF039
:103ED800000EDCF1000C7EEB00006EEB0101B1F589
:103EE800801F1BD3B1F5001F0CD349085FEA3000CF
:103EF8004FEA3C0C04F101044FEA445212F5800FDA
:103F080080F09A80BCF1004F08BF5FEA500C50F176
:103F1800000041EB045141EA050130BD5FEA4C0C59
:103F2800404141EB010111F4801FA4F10104E9D1E2
:103F380091F0000F04BF01460020B1FA81F308BFD9
:103F48002033A3F10B03B3F120020CDA0C3208DDA5
:103F580002F1140CC2F10C0201FA0CF021FA02F180
:103F68000CE002F11402D8BFC2F1200C01FA02F1F0
:103F780020FA0CFCDCBF41EA0C019040E41AA2BF15
:103F880001EB0451294330BD6FEA04041F3C1CDADD
:103F98000C340EDC04F11404C4F1200220FA04F0FD
:103FA80001FA02F340EA030021FA04F345EA0301A7
:103FB80030BDC4F10C04C4F1200220FA02F001FA69
:103FC80004F340EA0300294630BD21FA04F02946EB
:103FD80030BD94F0000F83F4801306BF81F4801184
:103FE8000134013D4EE77FEA645C18BF7FEA655CF7
:103FF80029D094EA050F08BF90EA020F05D054EAC9
:10400800000C04BF1946104630BD91EA030F1EBFCD
:104018000021002030BD5FEA545C05D140004941D1
:1040280028BF41F0004130BD14F580043CBF01F5C4
:10403800801130BD01F0004545F0FE4141F47001AA
:104048004FF0000030BD7FEA645C1ABF1946104685
:104058007FEA655C1CBF0B46024650EA013406BF86
:1040680052EA033591EA030F41F4002130BD00BF45
:1040780090F0000F04BF0021704730B54FF4806402
:1040880004F132044FF000054FF0000150E700BF83
:1040980090F0000F04BF0021704730B54FF48064E2
:1040A80004F1320410F0004548BF40424FF00001CF
:1040B8003EE700BF42004FEAE2014FEA31014FEA12
:1040C80002701FBF12F07F4393F07F4F81F0605161
:1040D800704792F0000F14BF93F07F4F704730B5D0
:1040E8004FF4607401F0004521F0004120E700BF63
:1040F80050EA010208BF704730B54FF000050AE0EA
:1041080050EA010208BF704730B511F0004502D5EA
:10411800404261EB41014FF4806404F132045FEAEC
:10412800915C3FF4DCAE4FF003025FEADC0C18BF91
:1041380003325FEADC0C18BF033202EBDC02C2F187
:10414800200300FA03FC20FA02F001FA03FE40EA19
:104158000E0021FA02F11444C1E600BF70B54FF019
:10416800FF0C4CF4E06C1CEA11541DBF1CEA1355FB
:1041780094EA0C0F95EA0C0F00F0DEF82C4481EA63
:10418800030621EA4C5123EA4C5350EA013518BF83
:1041980052EA033541F4801143F4801338D0A0FB70
:1041A80002CE4FF00005E1FB02E506F00042E0FB1D
:1041B80003E54FF00006E1FB03569CF0000F18BF23
:1041C8004EF0010EA4F1FF04B6F5007F64F54074CB
:1041D80004D25FEA4E0E6D4146EB060642EAC6215E
:1041E80041EA55514FEAC52040EA5E504FEACE2ECB
:1041F800B4F1FD0C88BFBCF5E06F1ED8BEF1004FCE
:1042080008BF5FEA500E50F1000041EB045170BD49
:1042180006F0004646EA010140EA020081EA03018D
:10422800B4EB5C04C2BFD4EB0C0541EA045170BD89
:1042380041F480114FF0000E013C00F3AB8014F103
:10424800360FDEBF002001F0004170BDC4F100044C
:10425800203C35DA0C341BDC04F11404C4F12005CD
:1042680000FA05F320FA04F001FA05F240EA020028
:1042780001F0004221F0004110EBD37021FA04F65E
:1042880042EB06015EEA430E08BF20EAD37070BD18
:10429800C4F10C04C4F1200500FA04F320FA05F077
:1042A80001FA04F240EA020001F0004110EBD37079
:1042B80041F100015EEA430E08BF20EAD37070BDE9
:1042C800C4F1200500FA05F24EEA020E20FA04F3C2
:1042D80001FA05F243EA020321FA04F001F0004171
:1042E80021FA04F220EA020000EBD3705EEA430EE2
:1042F80008BF20EAD37070BD94F0000F0FD101F011
:104308000046400041EB010111F4801F08BF013C49
:10431800F7D041EA060195F0000F18BF704703F087
:104328000046520043EB030313F4801F08BF013D0E
:10433800F7D043EA0603704794EA0C0F0CEA1355CA
:1043480018BF95EA0C0F0CD050EA410618BF52EA84
:104358004306D1D181EA030101F000414FF000008A
:1043680070BD50EA410606BF1046194652EA430698
:1043780019D094EA0C0F02D150EA013613D195EA0C
:104388000C0F05D152EA03361CBF104619460AD154
:1043980081EA030101F0004141F0FE4141F470015E
:1043A8004FF0000070BD41F0FE4141F4780170BD4E
:1043B80070B54FF0FF0C4CF4E06C1CEA11541DBFB3
:1043C8001CEA135594EA0C0F95EA0C0F00F0A7F8B5
:1043D800A4EB050481EA030E52EA03354FEA0131E2
:1043E80000F088804FEA03334FF0805545EA1313F5
:1043F80043EA12634FEA022245EA111545EA1065BD
:104408004FEA00260EF000419D4208BF964244F153
:10441800FD0404F5407402D25B084FEA3202B61A72
:1044280065EB03055B084FEA32024FF480104FF446
:10443800002CB6EB020E75EB030E22BFB61A7546BA
:1044480040EA0C005B084FEA3202B6EB020E75EB4D
:10445800030E22BFB61A754640EA5C005B084FEAB5
:104468003202B6EB020E75EB030E22BFB61A754682
:1044780040EA9C005B084FEA3202B6EB020E75EB8D
:10448800030E22BFB61A754640EADC0055EA060E4E
:1044980018D04FEA051545EA16754FEA06164FEA91
:1044A800C30343EA52734FEAC2025FEA1C1CC0D13D
:1044B80011F4801F0BD141EA00014FF000004FF0CA
:1044C800004CB6E711F4801F04BF01430020B4F18B
:1044D800FD0C88BFBCF5E06F3FF6AFAEB5EB030C43
:1044E80004BFB6EB020C5FEA500C50F1000041EB40
:1044F800045170BD0EF0004E4EEA113114EB5C040D
:10450800C2BFD4EB0C0541EA045170BD41F48011DF
:104518004FF0000E013C90E645EA060E8DE60CEAE7
:10452800135594EA0C0F08BF95EA0C0F3FF43BAF04
:1045380094EA0C0F0AD150EA01347FF434AF95EABB
:104548000C0F7FF425AF104619462CE795EA0C0F9F
:1045580006D152EA03353FF4FDAE1046194622E76C
:1045680050EA410618BF52EA43067FF4C5AE50EA46
:1045780041047FF40DAF52EA43057FF4EBAE12E736
:104588004FF0FF3C06E000BF4FF0010C02E000BF17
:104598004FF0010C4DF804CD4FEA410C7FEA6C5CFA
:1045A8004FEA430C18BF7FEA6C5C1BD001B050EA9D
:1045B800410C0CBF52EA430C91EA030F02BF90EA88
:1045C800020F0020704710F1000F91EA030F58BF47
:1045D800994208BF90422CBFD8176FEAE37040F0A9
:1045E800010070474FEA410C7FEA6C5C02D150EA47
:1045F800013C07D14FEA430C7FEA6C5CD6D152EA02
:10460800033CD3D05DF8040B704700BF84461046C6
:1046180062468C461946634600E000BF01B5FFF7C5
:10462800B7FF002848BF10F1000F01BD4DF808ED95
:10463800FFF7F4FF0CBF012000205DF808FB00BF66
:104648004DF808EDFFF7EAFF34BF012000205DF8C0
:1046580008FB00BF4DF808EDFFF7E0FF94BF01200D
:1046680000205DF808FB00BF4DF808EDFFF7CEFF0E
:1046780094BF012000205DF808FB00BF4DF808ED4D
:10468800FFF7C4FF34BF012000205DF808FB00BF1E
:104698004FEA4102B2F1E04324BFB3F5001CDCF15C
:1046A800FE5C0DD901F0004C4FEAC0024CEA507094
:1046B800B2F1004F40EB830008BF20F001007047C3
:1046C80011F0804F21D113F13872BCBF01F00040C6
:1046D800704741F480114FEA5252C2F11802C2F1F8
:1046E800200C10FA0CF320FA02F018BF40F0010079
:1046F8004FEAC1234FEAD32303FA0CFC40EA0C002B
:1047080023FA02F34FEA4303CCE77FEA625307D167
:1047180050EA01331EBF4FF0FE4040F4400070479E
:1047280001F0004040F0FE4040F40000704700BF38
:1047380070B549F6CC0649F6CC05C0F60005C0F6BA
:104748000006761BB6101CBF043D002405D00134BA
:1047580055F8043F9847A642F9D149F6CC0649F6E0
:10476800CC05C0F60005C0F60006761BFBF7A4FDD5
:10477800B6101CBF043D002406D0013455F8043F90
:104788009847A642F9D170BD70BD00BF0CB4F0B512
:104798009DB022AC0E4654F8042B029123464FF4E8
:1047A800027E6FF000454FF6FF7702A90696019446
:1047B800ADF814E004950795ADF8167000F030F8E0
:1047C800029B00221A701DB0BDE8F04002B070478D
:1047D8000EB4F0B59CB021AC40F2280154F8042B7B
:1047E800C2F20001064623464FF4027E6FF00045F0
:1047F800086802964FF6FF7702A906960194ADF86D
:1048080014E004950795ADF8167000F009F8029BBE
:1048180000221A701CB0BDE8F04003B0704700BF1A
:104828002DE9F04FC3B006920B9309910D9002F059
:104838007FFA0068159003F095FB099C1890A389EE
:104848001A0603D52369002B01F00D800DF1C7046A
:104858000394039C0DF1C80AC4EB0A0449F2E0660C
:104868001B9449F6A8040023C0F60006C0F600040D
:104878000E932793269316931793149319930F93D4
:1048880006F11009CDF894A057461294069C237897
:10489800252B18BF002B00F0AB80621C1446013298
:1048A8002378252B18BF002BF8D10698251A0ED08F
:1048B800269B279A386001332A44072B7D6027926C
:1048C8002693D8BF083779DC0F9929440F912378AC
:1048D800002B7BD000231A468DF87730079304937A
:1048E8004FF0FF3301340593114625780134A5F1C3
:1048F8002003582B00F2CB83DFE813F02B03C90306
:10490800C903B903C903C903C903C903C903C9034F
:10491800C0037C00C9035B003102C903A102C802BD
:10492800C802C802C802C802C802C802C802C8022F
:10493800C903C903C903C903C903C903C903C9030F
:10494800C903C9034B026502C9036502C903C90348
:10495800C903C903A602C903C903B002C903C9032D
:10496800C903C903C9032F03C903C9034403C903FE
:10497800C903C903C903C903C903C903C903C903CF
:10498800C9035E037203650265026502850372034B
:10499800C903C9038A03C9038F037E00A103D60292
:1049A800C903DD02C9032502C903C9030C0349422F
:1049B8000B93049B43F00403049396E70D9809991D
:1049C80025AA03F0FFFA40B957467DE7279B23B194
:1049D8000D98099925AA03F0F5FA099C0F98A3895F
:1049E80013F0400F18BF4FF0FF3043B0BDE8F08F11
:1049F800069C6CE72B2278E70694049C079114F038
:104A0800100300F036820B9C2368043400210B94B9
:104A180000228DF87720059C002CA2BF049C24F06E
:104A280080040494059C002B08BF002C0CBF0020B8
:104A3800012000F0AB83012900F0E48402290DF184
:104A4800C70140F06581DDF850E003F00F000C4627
:104A58001EF800101B09217004F1FF31F5D1C4EBD9
:104A68000A030C930C99059800238142B8BF0146AC
:104A7800089113932AB1DDF820E00EF1010ECDF86C
:104A880020E0049B13F0020318BFDDF820E0109328
:104A9800049B1CBF0EF1020ECDF820E013F0840336
:104AA800119340F0088307980899C1EB0008B8F102
:104AB800000F40F30083B8F1100F49F2E06340F3B0
:104AC8007F87C0F600031A9538462799269A0A93D5
:104AD80027464FF0100B0D9C099D04E0A8F1100823
:104AE800B8F1100F19DD01321031072A80E84008AB
:104AF80027912692D8BF0830F0DD2046294625AAFE
:104B080003F060FA00287FF468AFA8F11008B8F144
:104B1800100F2799269A5046E5DC1A9D3C46074611
:104B280001320A9B269208EB010C072ACDF89CC09B
:104B380087E8080100F372849DF87720083782B16E
:104B4800269B01330CF1010C0DF177010122072B93
:104B580087E80600CDF89CC02693D8BF083700F335
:104B6800E183109B7BB1269B01330CF1020C1EA93B
:104B78000222072B87E80600CDF89CC02693D8BFF1
:104B8800083700F3DB83119B802B00F01183059A13
:104B98000C9BC3EB0208B8F1000F4EDDB8F1100F03
:104BA800D8BFAD48269BD8BF0A902FDDAA490595E6
:104BB80030460A913A46464627464FF0100B614662
:104BC8000D9C099D804602E0103E102E17DD013332
:104BD8001031072B82E8000A27912693D8BF0832A4
:104BE800F2DD2046294625AA03F0ECF900287FF4D7
:104BF800F4AE103E102E2799269B5246E7DC3C4621
:104C0800059D174642468C46B046164601330A9A19
:104C18002693C444072B87E80401CDF89CC0D8BF6D
:104C280008370ADD0D98099925AA03F0CBF9002861
:104C38007FF4D3AEDDF89CC05746049BDB0500F13A
:104C48003D82269B3C600C9C0133A444072BCDF885
:104C58009CC07C60269300F34B830837049C630751
:104C680046D507980899441A002C41DD102C49F2C2
:104C7800E06340F3C78649F2E060C0F60000269B77
:104C88000A9010256246DDF83480DDF824B002E091
:104C9800103C102C17DD01331032072B3E607D606D
:104CA80027922693D8BF0837F2DD4046594625AAF1
:104CB80003F088F900287FF490AE103C102C279A56
:104CC800269B5746E7DC944601330A992693A44469
:104CD800072BCDF89CC087E8120009DD0D980999CB
:104CE80025AA03F06FF900287FF477AEDDF89CC0A1
:104CF8000F9C089907988142ACBF641824180F9438
:104D0800BCF1000F40F00083002326935746BDE511
:104D180003F007003030DB080C46087001F1FF3162
:104D2800F6D1DDF810E01EF0010F23463FF497AEF0
:104D380030283FF494AE0C46C4EB0A0030210C90A6
:104D480003F8011C8EE60694049C0791E00640F1E6
:104D58000E810B9C2368043401210B9458E62578B6
:104D68002A2D04F1010400F04787A5F13003092B2F
:104D78004FF000000BD814F8015B00EB800003EB48
:104D88004000A5F13003092BF5D940EAE070059001
:104D9800ADE50694049C079144F010040494049C27
:104DA8008DF87720E30640F123810B9C23680434B7
:104DB8000B94002BB7BF2D229DF877208DF8772014
:104DC8005B42012127E606940B9C8DF87720E31DB2
:104DD80023F0070303F1080407910B941C68169449
:104DE8005B68169A1793179B43EC102B02F06CFF25
:104DF800012840F042841698179900220023FFF7F3
:104E08001FFC002840F01A869DF87720049949F67F
:104E18006C0449F668034FF0030E0020C0F6000446
:104E2800C0F6000321F08001CDF820E00590049140
:104E3800472DD8BF1C46CDF830E013901AE6049BE6
:104E480043F08003049350E5DDF810E04EF0080EBF
:104E5800CDF810E049E500BFF09600080694049CE0
:104E6800079144F010040494049C14F010037FF498
:104E7800CAAD049C14F0400115BF0B9C0B9C19464D
:104E8800236818BF238804340B94C1E5A5F13003C7
:104E9800002114F8015B01EB810103EB4101A5F14D
:104EA8003003092BF5D922E5DDF810E04EF0100E9D
:104EB800CDF810E019E5DDF82CE00694DEF80040A6
:104EC80007914FF0000B8DF877B00EF10408002C15
:104ED80000F0A085059800282046C0F26185594653
:104EE800059A02F0E1F9002800F0C285059BCDF88B
:104EF8002C80001B9842B8BF034623EAE37E0C933C
:104F0800CDF814B0CDF820E05846CDF84CB09DF857
:104F18007720AFE5069449F68C04C0F60004149493
:104F2800049C0791E1068DF8772037D50B9C236800
:104F380004340B94049CE2073CD5002B3AD0302271
:104F480044F002048DF8795004948DF878200221F9
:104F58005EE5002A08BF2022C7E40694049C079156
:104F680044F010040494049CE0063FF5F2AE049C5F
:104F780014F0400F0B9C14BF2388236804340121CC
:104F88000B9445E5069449F67804C0F60004149499
:104F9800049C0791E1068DF87720C7D4049C14F08F
:104FA800400F0B9C14BF2388236804340B94049C83
:104FB800E207C2D402212BE5069401240B9B089436
:104FC8000B9C1B680791043400220B9401240C9459
:104FD8008DF877208DF8A0300592139228AC50E513
:104FE8000694049C0791E3068DF877203FF5DDAE23
:104FF800049C14F0400F0B9C14BFB4F900302368D4
:1050080004340B94D5E6049840F0400004906CE416
:10501800049B43F01003049367E40694049C8DF802
:105028007720E50600F15482049C640640F1508222
:105038000B9C236804340B940F9C1C8026E4069474
:10504800049C0B9B079144F0020404940B9C1B687E
:1050580004340B9449F68C0430227825C0F60004F9
:105068008DF878208DF8795014940221D0E4DDF879
:1050780010E04EF0010ECDF810E036E40B98016810
:10508800002900F10403FFF692AC0B932DE407917D
:1050980006948DF87720002D3FF498AC0023012466
:1050A80008940C941A468DF8A0508DF87730059323
:1050B800139328ACE5E4DDF89CC040E5652D40F38A
:1050C800D08016981799CDF808C000220023FFF762
:1050D800ADFADDF808C0002800F03C81269B129C40
:1050E80001330CF1010C0122072B3C607A60CDF8EA
:1050F8009CC02693D8BF083700F300831F9B0E9CE3
:10510800A34203DB049CE0077FF5A8AD159C269B12
:105118003C60189C0133A444072B7C60CDF89CC0EC
:105128002693D8BF083700F346830E98441E002CF8
:105138007FF794AD102CD8BFA349269BD8BF0A91FE
:1051480040F3C182A04ADDF834800A9210256246F5
:10515800DDF824B003E0103C102C40F3B382013397
:105168001032072BC7F800907D6027922693D8BF8E
:105178000837F0DD4046594625AA02F023FF0028EB
:105188007FF42BAC279A269B5746E4E7002940F08A
:10519800C580049CE0075CBF0C9154467FF562AC67
:1051A8001B9C30230C948DF8C7300DF1C70459E4CB
:1051B80007980899C1EB0008B8F1000F7FF7E7AC32
:1051C800B8F1100FD8BF804A269BD8BF0A922FDDAE
:1051D8007D4810950A9030463A46464627464FF095
:1051E800100B61460D9C099D804602E0103E102E72
:1051F80017DD01331031072B82E8000A2791269327
:10520800D8BF0832F2DD2046294625AA02F0DAFE88
:1052180000287FF4E2AB103E102E2799269B5246B9
:10522800E7DC3C46109D174642468C46B04616467B
:1052380001330A992693C444072B87E80201CDF865
:105248009CC0D8BF08377FF7A2AC0D98099925AA4A
:1052580002F0B8FE00287FF4C0ABDDF89CC05746CA
:1052680095E40E9B269D012B40F3C48101350CF17A
:1052780001030122072D3C607A6027932695D8BF49
:10528800083700F3D781DDF86080159818993860E1
:1052980001359844072D7960CDF89C802695D8BFB4
:1052A800083700F3BA811698179900220023FFF7F0
:1052B800BDF9002840F0C1800E9A0135531E013413
:1052C8009844072D2695CDF89C803C607B6000F3C0
:1052D800F2800837DDF864C0199C0135C44421AB5D
:1052E800072DCDF89CC0269587E818007FF7B5AC48
:1052F8000D98099925AA02F065FE00287FF46DAB88
:10530800DDF89CC05746A9E40D98099925AA02F032
:1053180059FE00283FF4F8ACFFF75FBB0C905446E9
:10532800FFF7A0BB0D98099925AA02F04BFE0028AB
:105338007FF453ABDDF89CC0574612E40D980999E9
:1053480025AA02F03FFE00287FF447ABDDF89CC099
:10535800574618E41F9B002B40F3DC810E9D1398E1
:10536800DDF838B08542A8BF0546002DA3440CDD02
:10537800269B3C600133AC44072B7D60CDF89CC074
:105388002693D8BF083700F322831399002DACBFAA
:10539800C5EB0101003900290D4640F3BD801029F5
:1053A800D8BF094A269BD8BF0A9240F39E80064878
:1053B80005943A460A9037464FF010082E46614643
:1053C8000D9C099D06E000BFF0960008103E102EC7
:1053D80040F3868001331031072BC2F80090C2F8E1
:1053E800048027912693D8BF0832EFDD204629464E
:1053F80025AA02F0E7FD00287FF4EFAA2799269B4B
:105408005246E3E7092B00F221811B9C30330C94B0
:105418008DF8C7300DF1C704FFF724BB0D98099923
:1054280025AA02F0CFFD00287FF4D7AA9DF877209F
:10543800DDF89CC05746FFF782BB0E9B5C1E002C14
:105448007FF748AFAC4B102C0A9329DD43460596ED
:10545800A0464FF0100B0D9C099E04E0A8F110081F
:10546800B8F1100F19DD01351033072D87E8000A50
:1054780027932695D8BF0837F0DD2046314625AA60
:1054880002F0A0FD00287FF4A8AAA8F11008B8F13E
:10549800100F279B269D5746E5DC059E44469846F7
:1054A80001350A9B2695A044072DCDF89C8087E8F6
:1054B80018007FF70EAF0D98099925AA02F082FD12
:1054C80000287FF48AAADDF89C80269D574601E7CC
:1054D8000B9C236804340B940F9C1C60FFF7D6B90F
:1054E800059C35468C463E46174601330A99269355
:1054F800AC44072B87E82200CDF89CC0D8BF0837FA
:105508000ADD0D98099925AA02F05CFD00287FF4B0
:1055180064AADDF89CC057461F9B0E98139A8342D5
:1055280014444CDB0499CA0749D40E9AC4EB0B0502
:10553800D31AAB42B8BF1D46002D0CDD269A3C603D
:105548000132AC44072A7D60CDF89CC02692D8BFB2
:10555800083700F34882002DACBFC5EB03041C1EBE
:10556800002C7FF77BAB102CD8BF6348269BD8BF95
:105578000A9040F3B5806049DDF834800A9110251F
:105588006246DDF824B003E0103C102C40F3A780FD
:1055980001331032072BC7F800907D6027922693BD
:1055A800D8BF0837F0DD4046594625AA02F00AFD63
:1055B80000287FF412AA279A269B5746E4E7269AE2
:1055C80018991598796001328C44072A3860CDF80B
:1055D8009CC02692D8BF0837A7DD0D98099925AA3F
:1055E80002F0F0FC00287FF4F8A91F9BDDF89CC0AE
:1055F80057469AE7DDF810E01EF0010F7FF436AE4B
:1056080001350CF101080123072DCDF89C80269562
:105618003C607B607FF75DAE4DE70D98099925AA40
:1056280002F0D0FC00287FF4D8A9DDF89C80269DE4
:10563800574638E60D98099925AA02F0C3FC0028B8
:105648007FF4CBA9279B269D57461CE64CF6CD4EEA
:10565800CCF6CC4E0DF1C700AEFB0341C90801EBF7
:10566800810C0446A3EB4C0303F1300020700B4679
:10567800601E0029F0D1FFF7F2B9169A179B43EC88
:10568800102B02F021FB002840F0A180059004981F
:1056980005999DF87720139149F6740449F670032B
:1056A8004FF0030EC0F60004C0F6000320F080009F
:1056B800CDF820E00490472DD8BF1C46CDF830E047
:1056C800FFF7D8B9944601330A982693A444072BC8
:1056D800CDF89CC087E811007FF7BFAA08E694467A
:1056E80001330A9A2693A444072BCDF89CC087E877
:1056F80014007FF7B2AAFBE5F09600080D98099907
:1057080025AA02F05FFC00287FF467A9DDF89CC099
:105718005746F3E4269A1299013239600CF1010CCC
:105728000121072ACDF89CC02692796000F30481F4
:1057380008371D462DB90E9A1AB9049BD9077FF56B
:105748008DAA269B1899189A15987A600133614496
:10575800072B386027912693D8BF07F1080200F37A
:10576800BB816D42002D40F30A81A948102D0A9093
:1057780040F3EF801027DDF83480DDF824B003E033
:10578800103D102D40F3E58001331031072BC2F88E
:105798000090576027912693D8BF0832F0DD404625
:1057A800594625AA02F00EFC00287FF416A927996D
:1057B800269B5246E4E70D98099925AA02F002FCB7
:1057C80000287FF40AA9DDF89CC05746ADE4059C83
:1057D800013408BF062425F0200808BF059407D027
:1057E800B8F1470F04D1059C002C08BF012405948B
:1057F800179B049C002B44F480741094BBBF1C4678
:1058080004F1004B00242D24A8BFDDF85CB00A94F5
:10581800B8F1460EDEF1000454EB0E040894002C97
:105828002FD00321169A5B4620AC23A843EC102BFB
:1058380000940190059A0D981FAB00F093FAB8F107
:10584800470F044603D10499C80740F10681DDF8E3
:1058580014C0089AA4446AB32378302B00F0A081BE
:105868001F9B9C4426E00D98402101F073FA2060AC
:105878002061002800F0D481099C40236361FEF771
:10588800E5BFB8F1450F40F041810598169A441CD0
:105898005B4620A823A943EC102B8DE80300224681
:1058A8000D98029402211FAB00F05CFADDF808C0E5
:1058B8000446844400231698CDF808C059460022AF
:1058C800FEF7B4FEDDF808C0634648B9239B9C4543
:1058D80006D930215A1C23921970239B9C45F9D86C
:1058E8001B1BB8F1470F0E9300F0BA80652D40F3EB
:1058F8009E81662D00F00C811F99139113980E99C3
:105908008842C0F2F680049AD30749BF139B0C90D3
:1059180001330C9354BF20EAE07323EAE37367254D
:105928000A9A002A40F08F800893109B05920493EE
:105938009DF87720FFF79EB80D98099925AA02F0DF
:1059480041FB00287FF449A81F9DDDF89CC05746FD
:10595800F0E601330A9826932944072B82E82100B0
:105968002791D8BF08320ADD0D98099925AA02F0B7
:1059780029FB00287FF431A82799269B5246DDF899
:1059880038C0146001330E9C26938C44072BCDF845
:105998009CC05460D8BF02F108077FF75FA9A7E44D
:1059A800CDF814B002F0DEFA059A0C9020EAE07106
:1059B8001392CDF82C8008919DF87720FFF75AB8FC
:1059C800C0F600030A932799269AFFF7A9B80D98FD
:1059D800099925AA02F0F6FA00287EF4FEAFDDF850
:1059E8009CC05746D1E40D98099925AA02F0EAFA15
:1059F80000287EF4F2AF1F9B0E9CDDF89CC0E31AD2
:105A08005746A8E5C0F600030A93269BFFF75CB942
:105A1800F09600082246059CCDF82C80062C28BF5D
:105A280006240C940C9B059249F6A00423EAE37320
:105A380013920893C0F60004FFF71CB82D228DF8C6
:105A48007720FFF7E3B9109808932D2200210490DE
:105A58008DF877200591FFF70EB8239B1B1B0E933B
:105A68001F9BD91C12DB059999420FDB139345E75D
:105A78000599059ACDF82C8021EAE1710C920891DC
:105A8800059013909DF87720FEF7F4BF023D013B87
:105A9800002B1F93BABF5B422D222B22092B8DF8B6
:105AA80084508DF8852042DC303330228DF88730E1
:105AB8008DF8862022AB21AA0E999A1A11441992C0
:105AC8000E9A0C91012A7EDD0C9B002001330C9369
